{
    "_format": "hh-sol-artifact-1",
    "contractName": "AINFT",
    "sourceName": "contracts/AINFT.sol",
    "abi": [
        {
            "inputs": [],
            "stateMutability": "nonpayable",
            "type": "constructor"
        },
        {
            "anonymous": false,
            "inputs": [
                {
                    "indexed": true,
                    "internalType": "address",
                    "name": "owner",
                    "type": "address"
                },
                {
                    "indexed": true,
                    "internalType": "address",
                    "name": "approved",
                    "type": "address"
                },
                {
                    "indexed": true,
                    "internalType": "uint256",
                    "name": "tokenId",
                    "type": "uint256"
                }
            ],
            "name": "Approval",
            "type": "event"
        },
        {
            "anonymous": false,
            "inputs": [
                {
                    "indexed": true,
                    "internalType": "address",
                    "name": "owner",
                    "type": "address"
                },
                {
                    "indexed": true,
                    "internalType": "address",
                    "name": "operator",
                    "type": "address"
                },
                {
                    "indexed": false,
                    "internalType": "bool",
                    "name": "approved",
                    "type": "bool"
                }
            ],
            "name": "ApprovalForAll",
            "type": "event"
        },
        {
            "anonymous": false,
            "inputs": [
                {
                    "indexed": false,
                    "internalType": "address",
                    "name": "sender",
                    "type": "address"
                },
                {
                    "indexed": false,
                    "internalType": "uint256",
                    "name": "tokenId",
                    "type": "uint256"
                }
            ],
            "name": "NewAINFTMinted",
            "type": "event"
        },
        {
            "anonymous": false,
            "inputs": [
                {
                    "indexed": true,
                    "internalType": "address",
                    "name": "from",
                    "type": "address"
                },
                {
                    "indexed": true,
                    "internalType": "address",
                    "name": "to",
                    "type": "address"
                },
                {
                    "indexed": true,
                    "internalType": "uint256",
                    "name": "tokenId",
                    "type": "uint256"
                }
            ],
            "name": "Transfer",
            "type": "event"
        },
        {
            "inputs": [
                {
                    "internalType": "address",
                    "name": "to",
                    "type": "address"
                },
                {
                    "internalType": "uint256",
                    "name": "tokenId",
                    "type": "uint256"
                }
            ],
            "name": "approve",
            "outputs": [],
            "stateMutability": "nonpayable",
            "type": "function"
        },
        {
            "inputs": [
                {
                    "internalType": "address",
                    "name": "owner",
                    "type": "address"
                }
            ],
            "name": "balanceOf",
            "outputs": [
                {
                    "internalType": "uint256",
                    "name": "",
                    "type": "uint256"
                }
            ],
            "stateMutability": "view",
            "type": "function"
        },
        {
            "inputs": [
                {
                    "internalType": "uint256",
                    "name": "tokenId",
                    "type": "uint256"
                }
            ],
            "name": "getApproved",
            "outputs": [
                {
                    "internalType": "address",
                    "name": "",
                    "type": "address"
                }
            ],
            "stateMutability": "view",
            "type": "function"
        },
        {
            "inputs": [
                {
                    "internalType": "address",
                    "name": "owner",
                    "type": "address"
                },
                {
                    "internalType": "address",
                    "name": "operator",
                    "type": "address"
                }
            ],
            "name": "isApprovedForAll",
            "outputs": [
                {
                    "internalType": "bool",
                    "name": "",
                    "type": "bool"
                }
            ],
            "stateMutability": "view",
            "type": "function"
        },
        {
            "inputs": [],
            "name": "makeAnAINFT",
            "outputs": [],
            "stateMutability": "nonpayable",
            "type": "function"
        },
        {
            "inputs": [],
            "name": "name",
            "outputs": [
                {
                    "internalType": "string",
                    "name": "",
                    "type": "string"
                }
            ],
            "stateMutability": "view",
            "type": "function"
        },
        {
            "inputs": [
                {
                    "internalType": "uint256",
                    "name": "tokenId",
                    "type": "uint256"
                }
            ],
            "name": "ownerOf",
            "outputs": [
                {
                    "internalType": "address",
                    "name": "",
                    "type": "address"
                }
            ],
            "stateMutability": "view",
            "type": "function"
        },
        {
            "inputs": [
                {
                    "internalType": "uint256",
                    "name": "tokenId",
                    "type": "uint256"
                }
            ],
            "name": "pickRandomFirstWord",
            "outputs": [
                {
                    "internalType": "string",
                    "name": "",
                    "type": "string"
                }
            ],
            "stateMutability": "view",
            "type": "function"
        },
        {
            "inputs": [
                {
                    "internalType": "uint256",
                    "name": "tokenId",
                    "type": "uint256"
                }
            ],
            "name": "pickRandomSecondWord",
            "outputs": [
                {
                    "internalType": "string",
                    "name": "",
                    "type": "string"
                }
            ],
            "stateMutability": "view",
            "type": "function"
        },
        {
            "inputs": [
                {
                    "internalType": "uint256",
                    "name": "tokenId",
                    "type": "uint256"
                }
            ],
            "name": "pickRandomStartColor",
            "outputs": [
                {
                    "internalType": "string",
                    "name": "",
                    "type": "string"
                }
            ],
            "stateMutability": "view",
            "type": "function"
        },
        {
            "inputs": [
                {
                    "internalType": "uint256",
                    "name": "tokenId",
                    "type": "uint256"
                }
            ],
            "name": "pickRandomThirdWord",
            "outputs": [
                {
                    "internalType": "string",
                    "name": "",
                    "type": "string"
                }
            ],
            "stateMutability": "view",
            "type": "function"
        },
        {
            "inputs": [
                {
                    "internalType": "address",
                    "name": "from",
                    "type": "address"
                },
                {
                    "internalType": "address",
                    "name": "to",
                    "type": "address"
                },
                {
                    "internalType": "uint256",
                    "name": "tokenId",
                    "type": "uint256"
                }
            ],
            "name": "safeTransferFrom",
            "outputs": [],
            "stateMutability": "nonpayable",
            "type": "function"
        },
        {
            "inputs": [
                {
                    "internalType": "address",
                    "name": "from",
                    "type": "address"
                },
                {
                    "internalType": "address",
                    "name": "to",
                    "type": "address"
                },
                {
                    "internalType": "uint256",
                    "name": "tokenId",
                    "type": "uint256"
                },
                {
                    "internalType": "bytes",
                    "name": "_data",
                    "type": "bytes"
                }
            ],
            "name": "safeTransferFrom",
            "outputs": [],
            "stateMutability": "nonpayable",
            "type": "function"
        },
        {
            "inputs": [
                {
                    "internalType": "address",
                    "name": "operator",
                    "type": "address"
                },
                {
                    "internalType": "bool",
                    "name": "approved",
                    "type": "bool"
                }
            ],
            "name": "setApprovalForAll",
            "outputs": [],
            "stateMutability": "nonpayable",
            "type": "function"
        },
        {
            "inputs": [
                {
                    "internalType": "bytes4",
                    "name": "interfaceId",
                    "type": "bytes4"
                }
            ],
            "name": "supportsInterface",
            "outputs": [
                {
                    "internalType": "bool",
                    "name": "",
                    "type": "bool"
                }
            ],
            "stateMutability": "view",
            "type": "function"
        },
        {
            "inputs": [],
            "name": "symbol",
            "outputs": [
                {
                    "internalType": "string",
                    "name": "",
                    "type": "string"
                }
            ],
            "stateMutability": "view",
            "type": "function"
        },
        {
            "inputs": [
                {
                    "internalType": "uint256",
                    "name": "tokenId",
                    "type": "uint256"
                }
            ],
            "name": "tokenURI",
            "outputs": [
                {
                    "internalType": "string",
                    "name": "",
                    "type": "string"
                }
            ],
            "stateMutability": "view",
            "type": "function"
        },
        {
            "inputs": [
                {
                    "internalType": "address",
                    "name": "from",
                    "type": "address"
                },
                {
                    "internalType": "address",
                    "name": "to",
                    "type": "address"
                },
                {
                    "internalType": "uint256",
                    "name": "tokenId",
                    "type": "uint256"
                }
            ],
            "name": "transferFrom",
            "outputs": [],
            "stateMutability": "nonpayable",
            "type": "function"
        }
    ],
    "bytecode": "0x608060405260405180610280016040528061024d8152602001620047a361024d9139600890805190602001906200003892919062000961565b5060405180602001604052806040518060400160405280600781526020017f234637433743370000000000000000000000000000000000000000000000000081525081525060099060016200008f929190620009f2565b5060405180602001604052806040518060400160405280600781526020017f2345364538353700000000000000000000000000000000000000000000000000815250815250600a906001620000e6929190620009f2565b506040518061014001604052806040518060400160405280600681526020017f527562626572000000000000000000000000000000000000000000000000000081525081526020016040518060400160405280600481526020017f476f6c640000000000000000000000000000000000000000000000000000000081525081526020016040518060400160405280600481526020017f426f6e650000000000000000000000000000000000000000000000000000000081525081526020016040518060400160405280600781526020017f506c61737469630000000000000000000000000000000000000000000000000081525081526020016040518060400160405280600581526020017f537465656c00000000000000000000000000000000000000000000000000000081525081526020016040518060400160405280600681526020017f436172626f6e000000000000000000000000000000000000000000000000000081525081526020016040518060400160405280600481526020017f4c6176610000000000000000000000000000000000000000000000000000000081525081526020016040518060400160405280600581526020017f576174657200000000000000000000000000000000000000000000000000000081525081526020016040518060400160405280600581526020017f456172746800000000000000000000000000000000000000000000000000000081525081526020016040518060400160405280600b81526020017f486f6c6f67726170686963000000000000000000000000000000000000000000815250815250600b90600a6200035192919062000a59565b506040518061012001604052806040518060400160405280600781526020017f50656e6775696e0000000000000000000000000000000000000000000000000081525081526020016040518060400160405280600581526020017f50616e646100000000000000000000000000000000000000000000000000000081525081526020016040518060400160405280600481526020017f4475636b0000000000000000000000000000000000000000000000000000000081525081526020016040518060400160405280600881526020017f456c657068616e7400000000000000000000000000000000000000000000000081525081526020016040518060400160405280600381526020017f446f67000000000000000000000000000000000000000000000000000000000081525081526020016040518060400160405280600381526020017f436174000000000000000000000000000000000000000000000000000000000081525081526020016040518060400160405280600581526020017f536e616b6500000000000000000000000000000000000000000000000000000081525081526020016040518060400160405280600481526020017f4c696f6e0000000000000000000000000000000000000000000000000000000081525081526020016040518060400160405280600581526020017f4d6f757365000000000000000000000000000000000000000000000000000000815250815250600c9060096200058192919062000ac0565b506040518061012001604052806040518060400160405280600881526020017f536b656c65746f6e00000000000000000000000000000000000000000000000081525081526020016040518060400160405280600981526020017f5363756c7074757265000000000000000000000000000000000000000000000081525081526020016040518060400160405280600581526020017f506c616e7400000000000000000000000000000000000000000000000000000081525081526020016040518060400160405280600981526020017f576972656672616d65000000000000000000000000000000000000000000000081525081526020016040518060400160405280600381526020017f426f78000000000000000000000000000000000000000000000000000000000081525081526020016040518060400160405280600d81526020017f436f6e7374656c6c6174696f6e0000000000000000000000000000000000000081525081526020016040518060400160405280600581526020017f486f75736500000000000000000000000000000000000000000000000000000081525081526020016040518060400160405280600781526020017f4f726967616d690000000000000000000000000000000000000000000000000081525081526020016040518060400160405280600a81526020017f436f6c6c656374696f6e00000000000000000000000000000000000000000000815250815250600d906009620007b192919062000ac0565b50348015620007bf57600080fd5b506040518060400160405280601081526020017f4d6f62697573537472697049494e4654000000000000000000000000000000008152506040518060400160405280600481526020017f4d5349490000000000000000000000000000000000000000000000000000000081525081600090805190602001906200084492919062000961565b5080600190805190602001906200085d92919062000961565b5050506200088f604051806060016040528060378152602001620049f0603791396200089560201b620013671760201c565b62000ce1565b6200093581604051602401620008ac919062000bf5565b6040516020818303038152906040527f41304fac000000000000000000000000000000000000000000000000000000007bffffffffffffffffffffffffffffffffffffffffffffffffffffffff19166020820180517bffffffffffffffffffffffffffffffffffffffffffffffffffffffff83818316178352505050506200093860201b60201c565b50565b60008151905060006a636f6e736f6c652e6c6f679050602083016000808483855afa5050505050565b8280546200096f9062000c6b565b90600052602060002090601f016020900481019282620009935760008555620009df565b82601f10620009ae57805160ff1916838001178555620009df565b82800160010185558215620009df579182015b82811115620009de578251825591602001919060010190620009c1565b5b509050620009ee919062000b27565b5090565b82805482825590600052602060002090810192821562000a46579160200282015b8281111562000a4557825182908051906020019062000a3492919062000961565b509160200191906001019062000a13565b5b50905062000a55919062000b46565b5090565b82805482825590600052602060002090810192821562000aad579160200282015b8281111562000aac57825182908051906020019062000a9b92919062000961565b509160200191906001019062000a7a565b5b50905062000abc919062000b46565b5090565b82805482825590600052602060002090810192821562000b14579160200282015b8281111562000b1357825182908051906020019062000b0292919062000961565b509160200191906001019062000ae1565b5b50905062000b23919062000b46565b5090565b5b8082111562000b4257600081600090555060010162000b28565b5090565b5b8082111562000b6a576000818162000b60919062000b6e565b5060010162000b47565b5090565b50805462000b7c9062000c6b565b6000825580601f1062000b90575062000bb1565b601f01602090049060005260206000209081019062000bb0919062000b27565b5b50565b600062000bc18262000c19565b62000bcd818562000c24565b935062000bdf81856020860162000c35565b62000bea8162000cd0565b840191505092915050565b6000602082019050818103600083015262000c11818462000bb4565b905092915050565b600081519050919050565b600082825260208201905092915050565b60005b8381101562000c5557808201518184015260208101905062000c38565b8381111562000c65576000848401525b50505050565b6000600282049050600182168062000c8457607f821691505b6020821081141562000c9b5762000c9a62000ca1565b5b50919050565b7f4e487b7100000000000000000000000000000000000000000000000000000000600052602260045260246000fd5b6000601f19601f8301169050919050565b613ab28062000cf16000396000f3fe608060405234801561001057600080fd5b50600436106101165760003560e01c806395d89b41116100a2578063b88d4fde11610071578063b88d4fde146102f1578063c575757a1461030d578063c87b56dd1461033d578063e985e9c51461036d578063ed6e8d091461039d57610116565b806395d89b411461027d578063a22cb4651461029b578063ac411149146102b7578063b187301f146102c157610116565b806323b872dd116100e957806323b872dd146101b55780632de38d68146101d157806342842e0e146102015780636352211e1461021d57806370a082311461024d57610116565b806301ffc9a71461011b57806306fdde031461014b578063081812fc14610169578063095ea7b314610199575b600080fd5b610135600480360381019061013091906126b8565b6103cd565b6040516101429190613316565b60405180910390f35b6101536104af565b6040516101609190613331565b60405180910390f35b610183600480360381019061017e919061270a565b610541565b6040516101909190613286565b60405180910390f35b6101b360048036038101906101ae919061267c565b6105c6565b005b6101cf60048036038101906101ca9190612576565b6106de565b005b6101eb60048036038101906101e6919061270a565b61073e565b6040516101f89190613331565b60405180910390f35b61021b60048036038101906102169190612576565b61085c565b005b6102376004803603810190610232919061270a565b61087c565b6040516102449190613286565b60405180910390f35b61026760048036038101906102629190612511565b61092e565b60405161027491906135c8565b60405180910390f35b6102856109e6565b6040516102929190613331565b60405180910390f35b6102b560048036038101906102b09190612640565b610a78565b005b6102bf610bf9565b005b6102db60048036038101906102d6919061270a565b610dc5565b6040516102e89190613331565b60405180910390f35b61030b600480360381019061030691906125c5565b610ee3565b005b6103276004803603810190610322919061270a565b610f45565b6040516103349190613331565b60405180910390f35b6103576004803603810190610352919061270a565b611063565b6040516103649190613331565b60405180910390f35b6103876004803603810190610382919061253a565b6111b5565b6040516103949190613316565b60405180910390f35b6103b760048036038101906103b2919061270a565b611249565b6040516103c49190613331565b60405180910390f35b60007f80ac58cd000000000000000000000000000000000000000000000000000000007bffffffffffffffffffffffffffffffffffffffffffffffffffffffff1916827bffffffffffffffffffffffffffffffffffffffffffffffffffffffff1916148061049857507f5b5e139f000000000000000000000000000000000000000000000000000000007bffffffffffffffffffffffffffffffffffffffffffffffffffffffff1916827bffffffffffffffffffffffffffffffffffffffffffffffffffffffff1916145b806104a857506104a782611400565b5b9050919050565b6060600080546104be90613867565b80601f01602080910402602001604051908101604052809291908181526020018280546104ea90613867565b80156105375780601f1061050c57610100808354040283529160200191610537565b820191906000526020600020905b81548152906001019060200180831161051a57829003601f168201915b5050505050905090565b600061054c8261146a565b61058b576040517f08c379a000000000000000000000000000000000000000000000000000000000815260040161058290613528565b60405180910390fd5b6004600083815260200190815260200160002060009054906101000a900473ffffffffffffffffffffffffffffffffffffffff169050919050565b60006105d18261087c565b90508073ffffffffffffffffffffffffffffffffffffffff168373ffffffffffffffffffffffffffffffffffffffff161415610642576040517f08c379a000000000000000000000000000000000000000000000000000000000815260040161063990613588565b60405180910390fd5b8073ffffffffffffffffffffffffffffffffffffffff166106616114d6565b73ffffffffffffffffffffffffffffffffffffffff161480610690575061068f8161068a6114d6565b6111b5565b5b6106cf576040517f08c379a00000000000000000000000000000000000000000000000000000000081526004016106c690613468565b60405180910390fd5b6106d983836114de565b505050565b6106ef6106e96114d6565b82611597565b61072e576040517f08c379a0000000000000000000000000000000000000000000000000000000008152600401610725906135a8565b60405180910390fd5b610739838383611675565b505050565b6060600061077261074e846118d1565b60405160200161075e91906131fd565b604051602081830303815290604052611a7e565b9050600b805490508161078591906138e2565b9050600b81815481106107c1577f4e487b7100000000000000000000000000000000000000000000000000000000600052603260045260246000fd5b9060005260206000200180546107d690613867565b80601f016020809104026020016040519081016040528092919081815260200182805461080290613867565b801561084f5780601f106108245761010080835404028352916020019161084f565b820191906000526020600020905b81548152906001019060200180831161083257829003601f168201915b5050505050915050919050565b61087783838360405180602001604052806000815250610ee3565b505050565b6000806002600084815260200190815260200160002060009054906101000a900473ffffffffffffffffffffffffffffffffffffffff169050600073ffffffffffffffffffffffffffffffffffffffff168173ffffffffffffffffffffffffffffffffffffffff161415610925576040517f08c379a000000000000000000000000000000000000000000000000000000000815260040161091c906134a8565b60405180910390fd5b80915050919050565b60008073ffffffffffffffffffffffffffffffffffffffff168273ffffffffffffffffffffffffffffffffffffffff16141561099f576040517f08c379a000000000000000000000000000000000000000000000000000000000815260040161099690613488565b60405180910390fd5b600360008373ffffffffffffffffffffffffffffffffffffffff1673ffffffffffffffffffffffffffffffffffffffff168152602001908152602001600020549050919050565b6060600180546109f590613867565b80601f0160208091040260200160405190810160405280929190818152602001828054610a2190613867565b8015610a6e5780601f10610a4357610100808354040283529160200191610a6e565b820191906000526020600020905b815481529060010190602001808311610a5157829003601f168201915b5050505050905090565b610a806114d6565b73ffffffffffffffffffffffffffffffffffffffff168273ffffffffffffffffffffffffffffffffffffffff161415610aee576040517f08c379a0000000000000000000000000000000000000000000000000000000008152600401610ae590613428565b60405180910390fd5b8060056000610afb6114d6565b73ffffffffffffffffffffffffffffffffffffffff1673ffffffffffffffffffffffffffffffffffffffff16815260200190815260200160002060008473ffffffffffffffffffffffffffffffffffffffff1673ffffffffffffffffffffffffffffffffffffffff16815260200190815260200160002060006101000a81548160ff0219169083151502179055508173ffffffffffffffffffffffffffffffffffffffff16610ba86114d6565b73ffffffffffffffffffffffffffffffffffffffff167f17307eab39ab6107e8899845ad3d59bd9653f200f220920489ca2b5937696c3183604051610bed9190613316565b60405180910390a35050565b6000610c056007611ab1565b90506000610c1282611249565b90506000610c1f8361073e565b90506000610c2c84610dc5565b90506000610c3985610f45565b90506000838383604051602001610c5293929190613137565b60405160208183030381529060405290506000600882604051602001610c79929190613168565b60405160208183030381529060405290506000610cbe83610c9984611abf565b604051602001610caa929190613241565b604051602081830303815290604052611abf565b9050600081604051602001610cd3919061321f565b6040516020818303038152906040529050610cee8189611c9f565b610cf8338a611d3b565b610d37896040518060400160405280600481526020017f6e6f706500000000000000000000000000000000000000000000000000000000815250611d59565b610d776040518060400160405280601681526020017f4e4654204944202573206d696e74656420746f202573000000000000000000008152508a33611dcd565b610d816007611e6c565b7f56c6c1a2710960b294583cc15308eb1eda4bf96ca9ce4e7da7962cdf7803996d338a604051610db29291906132ed565b60405180910390a1505050505050505050565b60606000610df9610dd5846118d1565b604051602001610de591906131b9565b604051602081830303815290604052611a7e565b9050600c8054905081610e0c91906138e2565b9050600c8181548110610e48577f4e487b7100000000000000000000000000000000000000000000000000000000600052603260045260246000fd5b906000526020600020018054610e5d90613867565b80601f0160208091040260200160405190810160405280929190818152602001828054610e8990613867565b8015610ed65780601f10610eab57610100808354040283529160200191610ed6565b820191906000526020600020905b815481529060010190602001808311610eb957829003601f168201915b5050505050915050919050565b610ef4610eee6114d6565b83611597565b610f33576040517f08c379a0000000000000000000000000000000000000000000000000000000008152600401610f2a906135a8565b60405180910390fd5b610f3f84848484611e82565b50505050565b60606000610f79610f55846118d1565b604051602001610f659190613197565b604051602081830303815290604052611a7e565b9050600d8054905081610f8c91906138e2565b9050600d8181548110610fc8577f4e487b7100000000000000000000000000000000000000000000000000000000600052603260045260246000fd5b906000526020600020018054610fdd90613867565b80601f016020809104026020016040519081016040528092919081815260200182805461100990613867565b80156110565780601f1061102b57610100808354040283529160200191611056565b820191906000526020600020905b81548152906001019060200180831161103957829003601f168201915b5050505050915050919050565b606061106e8261146a565b6110ad576040517f08c379a00000000000000000000000000000000000000000000000000000000081526004016110a490613508565b60405180910390fd5b60006006600084815260200190815260200160002080546110cd90613867565b80601f01602080910402602001604051908101604052809291908181526020018280546110f990613867565b80156111465780601f1061111b57610100808354040283529160200191611146565b820191906000526020600020905b81548152906001019060200180831161112957829003601f168201915b505050505090506000611157611ede565b905060008151141561116d5781925050506111b0565b6000825111156111a257808260405160200161118a929190613113565b604051602081830303815290604052925050506111b0565b6111ab84611ef5565b925050505b919050565b6000600560008473ffffffffffffffffffffffffffffffffffffffff1673ffffffffffffffffffffffffffffffffffffffff16815260200190815260200160002060008373ffffffffffffffffffffffffffffffffffffffff1673ffffffffffffffffffffffffffffffffffffffff16815260200190815260200160002060009054906101000a900460ff16905092915050565b6060600061127d611259846118d1565b60405160200161126991906131db565b604051602081830303815290604052611a7e565b90506009805490508161129091906138e2565b9050600981815481106112cc577f4e487b7100000000000000000000000000000000000000000000000000000000600052603260045260246000fd5b9060005260206000200180546112e190613867565b80601f016020809104026020016040519081016040528092919081815260200182805461130d90613867565b801561135a5780601f1061132f5761010080835404028352916020019161135a565b820191906000526020600020905b81548152906001019060200180831161133d57829003601f168201915b5050505050915050919050565b6113fd8160405160240161137b9190613331565b6040516020818303038152906040527f41304fac000000000000000000000000000000000000000000000000000000007bffffffffffffffffffffffffffffffffffffffffffffffffffffffff19166020820180517bffffffffffffffffffffffffffffffffffffffffffffffffffffffff8381831617835250505050611f9c565b50565b60007f01ffc9a7000000000000000000000000000000000000000000000000000000007bffffffffffffffffffffffffffffffffffffffffffffffffffffffff1916827bffffffffffffffffffffffffffffffffffffffffffffffffffffffff1916149050919050565b60008073ffffffffffffffffffffffffffffffffffffffff166002600084815260200190815260200160002060009054906101000a900473ffffffffffffffffffffffffffffffffffffffff1673ffffffffffffffffffffffffffffffffffffffff1614159050919050565b600033905090565b816004600083815260200190815260200160002060006101000a81548173ffffffffffffffffffffffffffffffffffffffff021916908373ffffffffffffffffffffffffffffffffffffffff160217905550808273ffffffffffffffffffffffffffffffffffffffff166115518361087c565b73ffffffffffffffffffffffffffffffffffffffff167f8c5be1e5ebec7d5bd14f71427d1e84f3dd0314c0f7b2291e5b200ac8c7c3b92560405160405180910390a45050565b60006115a28261146a565b6115e1576040517f08c379a00000000000000000000000000000000000000000000000000000000081526004016115d890613448565b60405180910390fd5b60006115ec8361087c565b90508073ffffffffffffffffffffffffffffffffffffffff168473ffffffffffffffffffffffffffffffffffffffff16148061165b57508373ffffffffffffffffffffffffffffffffffffffff1661164384610541565b73ffffffffffffffffffffffffffffffffffffffff16145b8061166c575061166b81856111b5565b5b91505092915050565b8273ffffffffffffffffffffffffffffffffffffffff166116958261087c565b73ffffffffffffffffffffffffffffffffffffffff16146116eb576040517f08c379a00000000000000000000000000000000000000000000000000000000081526004016116e290613548565b60405180910390fd5b600073ffffffffffffffffffffffffffffffffffffffff168273ffffffffffffffffffffffffffffffffffffffff16141561175b576040517f08c379a000000000000000000000000000000000000000000000000000000000815260040161175290613408565b60405180910390fd5b611766838383611fc5565b6117716000826114de565b6001600360008573ffffffffffffffffffffffffffffffffffffffff1673ffffffffffffffffffffffffffffffffffffffff16815260200190815260200160002060008282546117c1919061377d565b925050819055506001600360008473ffffffffffffffffffffffffffffffffffffffff1673ffffffffffffffffffffffffffffffffffffffff1681526020019081526020016000206000828254611818919061369c565b92505081905550816002600083815260200190815260200160002060006101000a81548173ffffffffffffffffffffffffffffffffffffffff021916908373ffffffffffffffffffffffffffffffffffffffff160217905550808273ffffffffffffffffffffffffffffffffffffffff168473ffffffffffffffffffffffffffffffffffffffff167fddf252ad1be2c89b69c2b068fc378daa952ba7f163c4a11628f55a4df523b3ef60405160405180910390a4505050565b60606000821415611919576040518060400160405280600181526020017f30000000000000000000000000000000000000000000000000000000000000008152509050611a79565b600082905060005b6000821461194b57808061193490613899565b915050600a8261194491906136f2565b9150611921565b60008167ffffffffffffffff81111561198d577f4e487b7100000000000000000000000000000000000000000000000000000000600052604160045260246000fd5b6040519080825280601f01601f1916602001820160405280156119bf5781602001600182028036833780820191505090505b5090505b60008514611a72576001826119d8919061377d565b9150600a856119e791906138e2565b60306119f3919061369c565b60f81b818381518110611a2f577f4e487b7100000000000000000000000000000000000000000000000000000000600052603260045260246000fd5b60200101907effffffffffffffffffffffffffffffffffffffffffffffffffffffffffffff1916908160001a905350600a85611a6b91906136f2565b94506119c3565b8093505050505b919050565b600081604051602001611a9191906130fc565b6040516020818303038152906040528051906020012060001c9050919050565b600081600001549050919050565b60606000825190506000811415611ae85760405180602001604052806000815250915050611c9a565b60006003600283611af9919061369c565b611b0391906136f2565b6004611b0f9190613723565b90506000602082611b20919061369c565b67ffffffffffffffff811115611b5f577f4e487b7100000000000000000000000000000000000000000000000000000000600052604160045260246000fd5b6040519080825280601f01601f191660200182016040528015611b915781602001600182028036833780820191505090505b5090506000604051806060016040528060408152602001613a3d60409139905060018101602083017f300000000000000000000000000000000000000000000000000000000000000060005b87811015611c565760038101905062ffffff818b015116603f8160121c168501518060081b905060ff603f83600c1c1687015116810190508060081b905060ff603f8360061c1687015116810190508060081b905060ff603f831687015116810190508060e01b90508085526004850194505050611bdd565b50506003860660018114611c715760028114611c8157611c8c565b613d3d60f01b6002830352611c8c565b603d60f81b60018303525b508484525050819450505050505b919050565b611d378282604051602401611cb5929190613353565b6040516020818303038152906040527f4b5c4277000000000000000000000000000000000000000000000000000000007bffffffffffffffffffffffffffffffffffffffffffffffffffffffff19166020820180517bffffffffffffffffffffffffffffffffffffffffffffffffffffffff8381831617835250505050611f9c565b5050565b611d55828260405180602001604052806000815250611fca565b5050565b611d628261146a565b611da1576040517f08c379a0000000000000000000000000000000000000000000000000000000008152600401611d98906134c8565b60405180910390fd5b80600660008481526020019081526020016000209080519060200190611dc892919061239d565b505050565b611e67838383604051602401611de59392919061338a565b6040516020818303038152906040527fe3849f79000000000000000000000000000000000000000000000000000000007bffffffffffffffffffffffffffffffffffffffffffffffffffffffff19166020820180517bffffffffffffffffffffffffffffffffffffffffffffffffffffffff8381831617835250505050611f9c565b505050565b6001816000016000828254019250508190555050565b611e8d848484611675565b611e9984848484612025565b611ed8576040517f08c379a0000000000000000000000000000000000000000000000000000000008152600401611ecf906133c8565b60405180910390fd5b50505050565b606060405180602001604052806000815250905090565b6060611f008261146a565b611f3f576040517f08c379a0000000000000000000000000000000000000000000000000000000008152600401611f3690613568565b60405180910390fd5b6000611f49611ede565b90506000815111611f695760405180602001604052806000815250611f94565b80611f73846118d1565b604051602001611f84929190613113565b6040516020818303038152906040525b915050919050565b60008151905060006a636f6e736f6c652e6c6f679050602083016000808483855afa5050505050565b505050565b611fd483836121bc565b611fe16000848484612025565b612020576040517f08c379a0000000000000000000000000000000000000000000000000000000008152600401612017906133c8565b60405180910390fd5b505050565b60006120468473ffffffffffffffffffffffffffffffffffffffff1661238a565b156121af578373ffffffffffffffffffffffffffffffffffffffff1663150b7a0261206f6114d6565b8786866040518563ffffffff1660e01b815260040161209194939291906132a1565b602060405180830381600087803b1580156120ab57600080fd5b505af19250505080156120dc57506040513d601f19601f820116820180604052508101906120d991906126e1565b60015b61215f573d806000811461210c576040519150601f19603f3d011682016040523d82523d6000602084013e612111565b606091505b50600081511415612157576040517f08c379a000000000000000000000000000000000000000000000000000000000815260040161214e906133c8565b60405180910390fd5b805181602001fd5b63150b7a0260e01b7bffffffffffffffffffffffffffffffffffffffffffffffffffffffff1916817bffffffffffffffffffffffffffffffffffffffffffffffffffffffff1916149150506121b4565b600190505b949350505050565b600073ffffffffffffffffffffffffffffffffffffffff168273ffffffffffffffffffffffffffffffffffffffff16141561222c576040517f08c379a0000000000000000000000000000000000000000000000000000000008152600401612223906134e8565b60405180910390fd5b6122358161146a565b15612275576040517f08c379a000000000000000000000000000000000000000000000000000000000815260040161226c906133e8565b60405180910390fd5b61228160008383611fc5565b6001600360008473ffffffffffffffffffffffffffffffffffffffff1673ffffffffffffffffffffffffffffffffffffffff16815260200190815260200160002060008282546122d1919061369c565b92505081905550816002600083815260200190815260200160002060006101000a81548173ffffffffffffffffffffffffffffffffffffffff021916908373ffffffffffffffffffffffffffffffffffffffff160217905550808273ffffffffffffffffffffffffffffffffffffffff16600073ffffffffffffffffffffffffffffffffffffffff167fddf252ad1be2c89b69c2b068fc378daa952ba7f163c4a11628f55a4df523b3ef60405160405180910390a45050565b600080823b905060008111915050919050565b8280546123a990613867565b90600052602060002090601f0160209004810192826123cb5760008555612412565b82601f106123e457805160ff1916838001178555612412565b82800160010185558215612412579182015b828111156124115782518255916020019190600101906123f6565b5b50905061241f9190612423565b5090565b5b8082111561243c576000816000905550600101612424565b5090565b600061245361244e84613614565b6135e3565b90508281526020810184848401111561246b57600080fd5b612476848285613825565b509392505050565b60008135905061248d816139e0565b92915050565b6000813590506124a2816139f7565b92915050565b6000813590506124b781613a0e565b92915050565b6000815190506124cc81613a0e565b92915050565b600082601f8301126124e357600080fd5b81356124f3848260208601612440565b91505092915050565b60008135905061250b81613a25565b92915050565b60006020828403121561252357600080fd5b60006125318482850161247e565b91505092915050565b6000806040838503121561254d57600080fd5b600061255b8582860161247e565b925050602061256c8582860161247e565b9150509250929050565b60008060006060848603121561258b57600080fd5b60006125998682870161247e565b93505060206125aa8682870161247e565b92505060406125bb868287016124fc565b9150509250925092565b600080600080608085870312156125db57600080fd5b60006125e98782880161247e565b94505060206125fa8782880161247e565b935050604061260b878288016124fc565b925050606085013567ffffffffffffffff81111561262857600080fd5b612634878288016124d2565b91505092959194509250565b6000806040838503121561265357600080fd5b60006126618582860161247e565b925050602061267285828601612493565b9150509250929050565b6000806040838503121561268f57600080fd5b600061269d8582860161247e565b92505060206126ae858286016124fc565b9150509250929050565b6000602082840312156126ca57600080fd5b60006126d8848285016124a8565b91505092915050565b6000602082840312156126f357600080fd5b6000612701848285016124bd565b91505092915050565b60006020828403121561271c57600080fd5b600061272a848285016124fc565b91505092915050565b61273c816137b1565b82525050565b61274b816137c3565b82525050565b600061275c82613659565b612766818561366f565b9350612776818560208601613834565b61277f816139cf565b840191505092915050565b600061279582613664565b61279f8185613680565b93506127af818560208601613834565b6127b8816139cf565b840191505092915050565b60006127ce82613664565b6127d88185613691565b93506127e8818560208601613834565b80840191505092915050565b6000815461280181613867565b61280b8186613691565b9450600182166000811461282657600181146128375761286a565b60ff1983168652818601935061286a565b61284085613644565b60005b8381101561286257815481890152600182019150602081019050612843565b838801955050505b50505092915050565b6000612880603283613680565b91507f4552433732313a207472616e7366657220746f206e6f6e20455243373231526560008301527f63656976657220696d706c656d656e74657200000000000000000000000000006020830152604082019050919050565b60006128e6601c83613680565b91507f4552433732313a20746f6b656e20616c7265616479206d696e746564000000006000830152602082019050919050565b6000612926600a83613691565b91507f54484952445f574f5244000000000000000000000000000000000000000000006000830152600a82019050919050565b6000612966602483613680565b91507f4552433732313a207472616e7366657220746f20746865207a65726f2061646460008301527f72657373000000000000000000000000000000000000000000000000000000006020830152604082019050919050565b60006129cc601983613680565b91507f4552433732313a20617070726f766520746f2063616c6c6572000000000000006000830152602082019050919050565b6000612a0c600b83613691565b91507f5345434f4e445f574f52440000000000000000000000000000000000000000006000830152600b82019050919050565b6000612a4c602c83613680565b91507f4552433732313a206f70657261746f7220717565727920666f72206e6f6e657860008301527f697374656e7420746f6b656e00000000000000000000000000000000000000006020830152604082019050919050565b6000612ab2600d83613691565b91507f3c2f746578743e3c2f7376673e000000000000000000000000000000000000006000830152600d82019050919050565b6000612af2603883613680565b91507f4552433732313a20617070726f76652063616c6c6572206973206e6f74206f7760008301527f6e6572206e6f7220617070726f76656420666f7220616c6c00000000000000006020830152604082019050919050565b6000612b58602a83613680565b91507f4552433732313a2062616c616e636520717565727920666f7220746865207a6560008301527f726f2061646472657373000000000000000000000000000000000000000000006020830152604082019050919050565b6000612bbe602983613680565b91507f4552433732313a206f776e657220717565727920666f72206e6f6e657869737460008301527f656e7420746f6b656e00000000000000000000000000000000000000000000006020830152604082019050919050565b6000612c24602e83613680565b91507f45524337323155524953746f726167653a2055524920736574206f66206e6f6e60008301527f6578697374656e7420746f6b656e0000000000000000000000000000000000006020830152604082019050919050565b6000612c8a600b83613691565b91507f53544152545f434f4c4f520000000000000000000000000000000000000000006000830152600b82019050919050565b6000612cca600283613691565b91507f227d0000000000000000000000000000000000000000000000000000000000006000830152600282019050919050565b6000612d0a602083613680565b91507f4552433732313a206d696e7420746f20746865207a65726f20616464726573736000830152602082019050919050565b6000612d4a603183613680565b91507f45524337323155524953746f726167653a2055524920717565727920666f722060008301527f6e6f6e6578697374656e7420746f6b656e0000000000000000000000000000006020830152604082019050919050565b6000612db0604b83613691565b91507f222c20226465736372697074696f6e223a202253717561726573206f6e20666c60008301527f65656b2e222c2022696d616765223a2022646174613a696d6167652f7376672b60208301527f786d6c3b6261736536342c0000000000000000000000000000000000000000006040830152604b82019050919050565b6000612e3c602c83613680565b91507f4552433732313a20617070726f76656420717565727920666f72206e6f6e657860008301527f697374656e7420746f6b656e00000000000000000000000000000000000000006020830152604082019050919050565b6000612ea2602983613680565b91507f4552433732313a207472616e73666572206f6620746f6b656e2074686174206960008301527f73206e6f74206f776e00000000000000000000000000000000000000000000006020830152604082019050919050565b6000612f08602f83613680565b91507f4552433732314d657461646174613a2055524920717565727920666f72206e6f60008301527f6e6578697374656e7420746f6b656e00000000000000000000000000000000006020830152604082019050919050565b6000612f6e602183613680565b91507f4552433732313a20617070726f76616c20746f2063757272656e74206f776e6560008301527f72000000000000000000000000000000000000000000000000000000000000006020830152604082019050919050565b6000612fd4600a83613691565b91507f46495253545f574f5244000000000000000000000000000000000000000000006000830152600a82019050919050565b6000613014601d83613691565b91507f646174613a6170706c69636174696f6e2f6a736f6e3b6261736536342c0000006000830152601d82019050919050565b6000613054603183613680565b91507f4552433732313a207472616e736665722063616c6c6572206973206e6f74206f60008301527f776e6572206e6f7220617070726f7665640000000000000000000000000000006020830152604082019050919050565b60006130ba600983613691565b91507f7b226e616d653a202200000000000000000000000000000000000000000000006000830152600982019050919050565b6130f68161381b565b82525050565b600061310882846127c3565b915081905092915050565b600061311f82856127c3565b915061312b82846127c3565b91508190509392505050565b600061314382866127c3565b915061314f82856127c3565b915061315b82846127c3565b9150819050949350505050565b600061317482856127f4565b915061318082846127c3565b915061318b82612aa5565b91508190509392505050565b60006131a282612919565b91506131ae82846127c3565b915081905092915050565b60006131c4826129ff565b91506131d082846127c3565b915081905092915050565b60006131e682612c7d565b91506131f282846127c3565b915081905092915050565b600061320882612fc7565b915061321482846127c3565b915081905092915050565b600061322a82613007565b915061323682846127c3565b915081905092915050565b600061324c826130ad565b915061325882856127c3565b915061326382612da3565b915061326f82846127c3565b915061327a82612cbd565b91508190509392505050565b600060208201905061329b6000830184612733565b92915050565b60006080820190506132b66000830187612733565b6132c36020830186612733565b6132d060408301856130ed565b81810360608301526132e28184612751565b905095945050505050565b60006040820190506133026000830185612733565b61330f60208301846130ed565b9392505050565b600060208201905061332b6000830184612742565b92915050565b6000602082019050818103600083015261334b818461278a565b905092915050565b6000604082019050818103600083015261336d818561278a565b90508181036020830152613381818461278a565b90509392505050565b600060608201905081810360008301526133a4818661278a565b90506133b360208301856130ed565b6133c06040830184612733565b949350505050565b600060208201905081810360008301526133e181612873565b9050919050565b60006020820190508181036000830152613401816128d9565b9050919050565b6000602082019050818103600083015261342181612959565b9050919050565b60006020820190508181036000830152613441816129bf565b9050919050565b6000602082019050818103600083015261346181612a3f565b9050919050565b6000602082019050818103600083015261348181612ae5565b9050919050565b600060208201905081810360008301526134a181612b4b565b9050919050565b600060208201905081810360008301526134c181612bb1565b9050919050565b600060208201905081810360008301526134e181612c17565b9050919050565b6000602082019050818103600083015261350181612cfd565b9050919050565b6000602082019050818103600083015261352181612d3d565b9050919050565b6000602082019050818103600083015261354181612e2f565b9050919050565b6000602082019050818103600083015261356181612e95565b9050919050565b6000602082019050818103600083015261358181612efb565b9050919050565b600060208201905081810360008301526135a181612f61565b9050919050565b600060208201905081810360008301526135c181613047565b9050919050565b60006020820190506135dd60008301846130ed565b92915050565b6000604051905081810181811067ffffffffffffffff8211171561360a576136096139a0565b5b8060405250919050565b600067ffffffffffffffff82111561362f5761362e6139a0565b5b601f19601f8301169050602081019050919050565b60008190508160005260206000209050919050565b600081519050919050565b600081519050919050565b600082825260208201905092915050565b600082825260208201905092915050565b600081905092915050565b60006136a78261381b565b91506136b28361381b565b9250827fffffffffffffffffffffffffffffffffffffffffffffffffffffffffffffffff038211156136e7576136e6613913565b5b828201905092915050565b60006136fd8261381b565b91506137088361381b565b92508261371857613717613942565b5b828204905092915050565b600061372e8261381b565b91506137398361381b565b9250817fffffffffffffffffffffffffffffffffffffffffffffffffffffffffffffffff048311821515161561377257613771613913565b5b828202905092915050565b60006137888261381b565b91506137938361381b565b9250828210156137a6576137a5613913565b5b828203905092915050565b60006137bc826137fb565b9050919050565b60008115159050919050565b60007fffffffff0000000000000000000000000000000000000000000000000000000082169050919050565b600073ffffffffffffffffffffffffffffffffffffffff82169050919050565b6000819050919050565b82818337600083830152505050565b60005b83811015613852578082015181840152602081019050613837565b83811115613861576000848401525b50505050565b6000600282049050600182168061387f57607f821691505b6020821081141561389357613892613971565b5b50919050565b60006138a48261381b565b91507fffffffffffffffffffffffffffffffffffffffffffffffffffffffffffffffff8214156138d7576138d6613913565b5b600182019050919050565b60006138ed8261381b565b91506138f88361381b565b92508261390857613907613942565b5b828206905092915050565b7f4e487b7100000000000000000000000000000000000000000000000000000000600052601160045260246000fd5b7f4e487b7100000000000000000000000000000000000000000000000000000000600052601260045260246000fd5b7f4e487b7100000000000000000000000000000000000000000000000000000000600052602260045260246000fd5b7f4e487b7100000000000000000000000000000000000000000000000000000000600052604160045260246000fd5b6000601f19601f8301169050919050565b6139e9816137b1565b81146139f457600080fd5b50565b613a00816137c3565b8114613a0b57600080fd5b50565b613a17816137cf565b8114613a2257600080fd5b50565b613a2e8161381b565b8114613a3957600080fd5b5056fe4142434445464748494a4b4c4d4e4f505152535455565758595a6162636465666768696a6b6c6d6e6f707172737475767778797a303132333435363738392b2fa2646970667358221220776f9b36cdcc95ab8f25f8dcd419fb05b85c10cdaa417bad151bf8c12ce29d6464736f6c634300080000333c73766720786d6c6e733d27687474703a2f2f7777772e77332e6f72672f323030302f73766727207072657365727665417370656374526174696f3d27784d696e594d696e206d656574272076696577426f783d273020302033353020333530273e3c646566733e3c6c696e6561724772616469656e742069643d276772616469656e74273e3c73746f7020636c6173733d2773746f703127206f66667365743d27302527202f3e3c73746f7020636c6173733d2773746f703227206f66667365743d273130302527202f3e3c2f6c696e6561724772616469656e743e3c7374796c653e2e62617365207b2066696c6c3a2077686974653b20666f6e742d66616d696c793a2073616e732d73657269663b20666f6e742d7374796c653a206974616c69633b20666f6e742d7765696768743a20626f6c643b20666f6e742d73697a653a20323470783b207d2023737175617265207b2066696c6c3a2075726c28236772616469656e74293b207d202e73746f7031207b2073746f702d636f6c6f723a20247b7374617274436f6c6f727d3b207d202e73746f7032207b2073746f702d636f6c6f723a20247b656e64436f6c6f727d3b207d3c2f7374796c653e3c726563742069643d27737175617265272077696474683d273130302527206865696768743d2731303025272066696c6c3d27626c61636b272f3e3c7465787420783d273530252720793d273530252720636c6173733d27626173652720646f6d696e616e742d626173656c696e653d276d6964646c652720746578742d616e63686f723d276d6964646c65273e436f6e74726163747572616c206f626c69676174696f6e732077617272616e74207468697320636f6e74726163742e204149204e46542e",
    "linkReferences": {},
    "deployedLinkReferences": {}
}