{
    "_format": "hh-sol-artifact-1",
    "contractName": "AINFT",
    "sourceName": "contracts/AINFT.sol",
    "abi": [
        {
            "inputs": [],
            "stateMutability": "nonpayable",
            "type": "constructor"
        },
        {
            "anonymous": false,
            "inputs": [
                {
                    "indexed": true,
                    "internalType": "address",
                    "name": "owner",
                    "type": "address"
                },
                {
                    "indexed": true,
                    "internalType": "address",
                    "name": "approved",
                    "type": "address"
                },
                {
                    "indexed": true,
                    "internalType": "uint256",
                    "name": "tokenId",
                    "type": "uint256"
                }
            ],
            "name": "Approval",
            "type": "event"
        },
        {
            "anonymous": false,
            "inputs": [
                {
                    "indexed": true,
                    "internalType": "address",
                    "name": "owner",
                    "type": "address"
                },
                {
                    "indexed": true,
                    "internalType": "address",
                    "name": "operator",
                    "type": "address"
                },
                {
                    "indexed": false,
                    "internalType": "bool",
                    "name": "approved",
                    "type": "bool"
                }
            ],
            "name": "ApprovalForAll",
            "type": "event"
        },
        {
            "anonymous": false,
            "inputs": [
                {
                    "indexed": true,
                    "internalType": "address",
                    "name": "from",
                    "type": "address"
                },
                {
                    "indexed": true,
                    "internalType": "address",
                    "name": "to",
                    "type": "address"
                },
                {
                    "indexed": true,
                    "internalType": "uint256",
                    "name": "tokenId",
                    "type": "uint256"
                }
            ],
            "name": "Transfer",
            "type": "event"
        },
        {
            "inputs": [
                {
                    "internalType": "address",
                    "name": "to",
                    "type": "address"
                },
                {
                    "internalType": "uint256",
                    "name": "tokenId",
                    "type": "uint256"
                }
            ],
            "name": "approve",
            "outputs": [],
            "stateMutability": "nonpayable",
            "type": "function"
        },
        {
            "inputs": [
                {
                    "internalType": "address",
                    "name": "owner",
                    "type": "address"
                }
            ],
            "name": "balanceOf",
            "outputs": [
                {
                    "internalType": "uint256",
                    "name": "",
                    "type": "uint256"
                }
            ],
            "stateMutability": "view",
            "type": "function"
        },
        {
            "inputs": [
                {
                    "internalType": "uint256",
                    "name": "tokenId",
                    "type": "uint256"
                }
            ],
            "name": "getApproved",
            "outputs": [
                {
                    "internalType": "address",
                    "name": "",
                    "type": "address"
                }
            ],
            "stateMutability": "view",
            "type": "function"
        },
        {
            "inputs": [
                {
                    "internalType": "address",
                    "name": "owner",
                    "type": "address"
                },
                {
                    "internalType": "address",
                    "name": "operator",
                    "type": "address"
                }
            ],
            "name": "isApprovedForAll",
            "outputs": [
                {
                    "internalType": "bool",
                    "name": "",
                    "type": "bool"
                }
            ],
            "stateMutability": "view",
            "type": "function"
        },
        {
            "inputs": [],
            "name": "makeAnAINFT",
            "outputs": [],
            "stateMutability": "nonpayable",
            "type": "function"
        },
        {
            "inputs": [],
            "name": "name",
            "outputs": [
                {
                    "internalType": "string",
                    "name": "",
                    "type": "string"
                }
            ],
            "stateMutability": "view",
            "type": "function"
        },
        {
            "inputs": [
                {
                    "internalType": "uint256",
                    "name": "tokenId",
                    "type": "uint256"
                }
            ],
            "name": "ownerOf",
            "outputs": [
                {
                    "internalType": "address",
                    "name": "",
                    "type": "address"
                }
            ],
            "stateMutability": "view",
            "type": "function"
        },
        {
            "inputs": [
                {
                    "internalType": "uint256",
                    "name": "tokenId",
                    "type": "uint256"
                }
            ],
            "name": "pickRandomFirstWord",
            "outputs": [
                {
                    "internalType": "string",
                    "name": "",
                    "type": "string"
                }
            ],
            "stateMutability": "view",
            "type": "function"
        },
        {
            "inputs": [
                {
                    "internalType": "uint256",
                    "name": "tokenId",
                    "type": "uint256"
                }
            ],
            "name": "pickRandomSecondWord",
            "outputs": [
                {
                    "internalType": "string",
                    "name": "",
                    "type": "string"
                }
            ],
            "stateMutability": "view",
            "type": "function"
        },
        {
            "inputs": [
                {
                    "internalType": "uint256",
                    "name": "tokenId",
                    "type": "uint256"
                }
            ],
            "name": "pickRandomStartColor",
            "outputs": [
                {
                    "internalType": "string",
                    "name": "",
                    "type": "string"
                }
            ],
            "stateMutability": "view",
            "type": "function"
        },
        {
            "inputs": [
                {
                    "internalType": "uint256",
                    "name": "tokenId",
                    "type": "uint256"
                }
            ],
            "name": "pickRandomThirdWord",
            "outputs": [
                {
                    "internalType": "string",
                    "name": "",
                    "type": "string"
                }
            ],
            "stateMutability": "view",
            "type": "function"
        },
        {
            "inputs": [
                {
                    "internalType": "address",
                    "name": "from",
                    "type": "address"
                },
                {
                    "internalType": "address",
                    "name": "to",
                    "type": "address"
                },
                {
                    "internalType": "uint256",
                    "name": "tokenId",
                    "type": "uint256"
                }
            ],
            "name": "safeTransferFrom",
            "outputs": [],
            "stateMutability": "nonpayable",
            "type": "function"
        },
        {
            "inputs": [
                {
                    "internalType": "address",
                    "name": "from",
                    "type": "address"
                },
                {
                    "internalType": "address",
                    "name": "to",
                    "type": "address"
                },
                {
                    "internalType": "uint256",
                    "name": "tokenId",
                    "type": "uint256"
                },
                {
                    "internalType": "bytes",
                    "name": "_data",
                    "type": "bytes"
                }
            ],
            "name": "safeTransferFrom",
            "outputs": [],
            "stateMutability": "nonpayable",
            "type": "function"
        },
        {
            "inputs": [
                {
                    "internalType": "address",
                    "name": "operator",
                    "type": "address"
                },
                {
                    "internalType": "bool",
                    "name": "approved",
                    "type": "bool"
                }
            ],
            "name": "setApprovalForAll",
            "outputs": [],
            "stateMutability": "nonpayable",
            "type": "function"
        },
        {
            "inputs": [
                {
                    "internalType": "bytes4",
                    "name": "interfaceId",
                    "type": "bytes4"
                }
            ],
            "name": "supportsInterface",
            "outputs": [
                {
                    "internalType": "bool",
                    "name": "",
                    "type": "bool"
                }
            ],
            "stateMutability": "view",
            "type": "function"
        },
        {
            "inputs": [],
            "name": "symbol",
            "outputs": [
                {
                    "internalType": "string",
                    "name": "",
                    "type": "string"
                }
            ],
            "stateMutability": "view",
            "type": "function"
        },
        {
            "inputs": [
                {
                    "internalType": "uint256",
                    "name": "tokenId",
                    "type": "uint256"
                }
            ],
            "name": "tokenURI",
            "outputs": [
                {
                    "internalType": "string",
                    "name": "",
                    "type": "string"
                }
            ],
            "stateMutability": "view",
            "type": "function"
        },
        {
            "inputs": [
                {
                    "internalType": "address",
                    "name": "from",
                    "type": "address"
                },
                {
                    "internalType": "address",
                    "name": "to",
                    "type": "address"
                },
                {
                    "internalType": "uint256",
                    "name": "tokenId",
                    "type": "uint256"
                }
            ],
            "name": "transferFrom",
            "outputs": [],
            "stateMutability": "nonpayable",
            "type": "function"
        }
    ],
    "bytecode": "0x608060405260405180610280016040528061024d81526020016200474161024d9139600890805190602001906200003892919062000961565b5060405180602001604052806040518060400160405280600781526020017f234637433743370000000000000000000000000000000000000000000000000081525081525060099060016200008f929190620009f2565b5060405180602001604052806040518060400160405280600781526020017f2345364538353700000000000000000000000000000000000000000000000000815250815250600a906001620000e6929190620009f2565b506040518061014001604052806040518060400160405280600681526020017f527562626572000000000000000000000000000000000000000000000000000081525081526020016040518060400160405280600481526020017f476f6c640000000000000000000000000000000000000000000000000000000081525081526020016040518060400160405280600481526020017f426f6e650000000000000000000000000000000000000000000000000000000081525081526020016040518060400160405280600781526020017f506c61737469630000000000000000000000000000000000000000000000000081525081526020016040518060400160405280600581526020017f537465656c00000000000000000000000000000000000000000000000000000081525081526020016040518060400160405280600681526020017f436172626f6e000000000000000000000000000000000000000000000000000081525081526020016040518060400160405280600481526020017f4c6176610000000000000000000000000000000000000000000000000000000081525081526020016040518060400160405280600581526020017f576174657200000000000000000000000000000000000000000000000000000081525081526020016040518060400160405280600581526020017f456172746800000000000000000000000000000000000000000000000000000081525081526020016040518060400160405280600b81526020017f486f6c6f67726170686963000000000000000000000000000000000000000000815250815250600b90600a6200035192919062000a59565b506040518061012001604052806040518060400160405280600781526020017f50656e6775696e0000000000000000000000000000000000000000000000000081525081526020016040518060400160405280600581526020017f50616e646100000000000000000000000000000000000000000000000000000081525081526020016040518060400160405280600481526020017f4475636b0000000000000000000000000000000000000000000000000000000081525081526020016040518060400160405280600881526020017f456c657068616e7400000000000000000000000000000000000000000000000081525081526020016040518060400160405280600381526020017f446f67000000000000000000000000000000000000000000000000000000000081525081526020016040518060400160405280600381526020017f436174000000000000000000000000000000000000000000000000000000000081525081526020016040518060400160405280600581526020017f536e616b6500000000000000000000000000000000000000000000000000000081525081526020016040518060400160405280600481526020017f4c696f6e0000000000000000000000000000000000000000000000000000000081525081526020016040518060400160405280600581526020017f4d6f757365000000000000000000000000000000000000000000000000000000815250815250600c9060096200058192919062000ac0565b506040518061012001604052806040518060400160405280600881526020017f536b656c65746f6e00000000000000000000000000000000000000000000000081525081526020016040518060400160405280600981526020017f5363756c7074757265000000000000000000000000000000000000000000000081525081526020016040518060400160405280600581526020017f506c616e7400000000000000000000000000000000000000000000000000000081525081526020016040518060400160405280600981526020017f576972656672616d65000000000000000000000000000000000000000000000081525081526020016040518060400160405280600381526020017f426f78000000000000000000000000000000000000000000000000000000000081525081526020016040518060400160405280600d81526020017f436f6e7374656c6c6174696f6e0000000000000000000000000000000000000081525081526020016040518060400160405280600581526020017f486f75736500000000000000000000000000000000000000000000000000000081525081526020016040518060400160405280600781526020017f4f726967616d690000000000000000000000000000000000000000000000000081525081526020016040518060400160405280600a81526020017f436f6c6c656374696f6e00000000000000000000000000000000000000000000815250815250600d906009620007b192919062000ac0565b50348015620007bf57600080fd5b506040518060400160405280601081526020017f4d6f62697573537472697049494e4654000000000000000000000000000000008152506040518060400160405280600481526020017f4d5349490000000000000000000000000000000000000000000000000000000081525081600090805190602001906200084492919062000961565b5080600190805190602001906200085d92919062000961565b5050506200088f6040518060600160405280603781526020016200498e603791396200089560201b6200132e1760201c565b62000ce1565b6200093581604051602401620008ac919062000bf5565b6040516020818303038152906040527f41304fac000000000000000000000000000000000000000000000000000000007bffffffffffffffffffffffffffffffffffffffffffffffffffffffff19166020820180517bffffffffffffffffffffffffffffffffffffffffffffffffffffffff83818316178352505050506200093860201b60201c565b50565b60008151905060006a636f6e736f6c652e6c6f679050602083016000808483855afa5050505050565b8280546200096f9062000c6b565b90600052602060002090601f016020900481019282620009935760008555620009df565b82601f10620009ae57805160ff1916838001178555620009df565b82800160010185558215620009df579182015b82811115620009de578251825591602001919060010190620009c1565b5b509050620009ee919062000b27565b5090565b82805482825590600052602060002090810192821562000a46579160200282015b8281111562000a4557825182908051906020019062000a3492919062000961565b509160200191906001019062000a13565b5b50905062000a55919062000b46565b5090565b82805482825590600052602060002090810192821562000aad579160200282015b8281111562000aac57825182908051906020019062000a9b92919062000961565b509160200191906001019062000a7a565b5b50905062000abc919062000b46565b5090565b82805482825590600052602060002090810192821562000b14579160200282015b8281111562000b1357825182908051906020019062000b0292919062000961565b509160200191906001019062000ae1565b5b50905062000b23919062000b46565b5090565b5b8082111562000b4257600081600090555060010162000b28565b5090565b5b8082111562000b6a576000818162000b60919062000b6e565b5060010162000b47565b5090565b50805462000b7c9062000c6b565b6000825580601f1062000b90575062000bb1565b601f01602090049060005260206000209081019062000bb0919062000b27565b5b50565b600062000bc18262000c19565b62000bcd818562000c24565b935062000bdf81856020860162000c35565b62000bea8162000cd0565b840191505092915050565b6000602082019050818103600083015262000c11818462000bb4565b905092915050565b600081519050919050565b600082825260208201905092915050565b60005b8381101562000c5557808201518184015260208101905062000c38565b8381111562000c65576000848401525b50505050565b6000600282049050600182168062000c8457607f821691505b6020821081141562000c9b5762000c9a62000ca1565b5b50919050565b7f4e487b7100000000000000000000000000000000000000000000000000000000600052602260045260246000fd5b6000601f19601f8301169050919050565b613a508062000cf16000396000f3fe608060405234801561001057600080fd5b50600436106101165760003560e01c806395d89b41116100a2578063b88d4fde11610071578063b88d4fde146102f1578063c575757a1461030d578063c87b56dd1461033d578063e985e9c51461036d578063ed6e8d091461039d57610116565b806395d89b411461027d578063a22cb4651461029b578063ac411149146102b7578063b187301f146102c157610116565b806323b872dd116100e957806323b872dd146101b55780632de38d68146101d157806342842e0e146102015780636352211e1461021d57806370a082311461024d57610116565b806301ffc9a71461011b57806306fdde031461014b578063081812fc14610169578063095ea7b314610199575b600080fd5b6101356004803603810190610130919061267f565b6103cd565b60405161014291906132b4565b60405180910390f35b6101536104af565b60405161016091906132cf565b60405180910390f35b610183600480360381019061017e91906126d1565b610541565b604051610190919061324d565b60405180910390f35b6101b360048036038101906101ae9190612643565b6105c6565b005b6101cf60048036038101906101ca919061253d565b6106de565b005b6101eb60048036038101906101e691906126d1565b61073e565b6040516101f891906132cf565b60405180910390f35b61021b6004803603810190610216919061253d565b61085c565b005b610237600480360381019061023291906126d1565b61087c565b604051610244919061324d565b60405180910390f35b610267600480360381019061026291906124d8565b61092e565b6040516102749190613566565b60405180910390f35b6102856109e6565b60405161029291906132cf565b60405180910390f35b6102b560048036038101906102b09190612607565b610a78565b005b6102bf610bf9565b005b6102db60048036038101906102d691906126d1565b610d8c565b6040516102e891906132cf565b60405180910390f35b61030b6004803603810190610306919061258c565b610eaa565b005b610327600480360381019061032291906126d1565b610f0c565b60405161033491906132cf565b60405180910390f35b610357600480360381019061035291906126d1565b61102a565b60405161036491906132cf565b60405180910390f35b61038760048036038101906103829190612501565b61117c565b60405161039491906132b4565b60405180910390f35b6103b760048036038101906103b291906126d1565b611210565b6040516103c491906132cf565b60405180910390f35b60007f80ac58cd000000000000000000000000000000000000000000000000000000007bffffffffffffffffffffffffffffffffffffffffffffffffffffffff1916827bffffffffffffffffffffffffffffffffffffffffffffffffffffffff1916148061049857507f5b5e139f000000000000000000000000000000000000000000000000000000007bffffffffffffffffffffffffffffffffffffffffffffffffffffffff1916827bffffffffffffffffffffffffffffffffffffffffffffffffffffffff1916145b806104a857506104a7826113c7565b5b9050919050565b6060600080546104be90613805565b80601f01602080910402602001604051908101604052809291908181526020018280546104ea90613805565b80156105375780601f1061050c57610100808354040283529160200191610537565b820191906000526020600020905b81548152906001019060200180831161051a57829003601f168201915b5050505050905090565b600061054c82611431565b61058b576040517f08c379a0000000000000000000000000000000000000000000000000000000008152600401610582906134c6565b60405180910390fd5b6004600083815260200190815260200160002060009054906101000a900473ffffffffffffffffffffffffffffffffffffffff169050919050565b60006105d18261087c565b90508073ffffffffffffffffffffffffffffffffffffffff168373ffffffffffffffffffffffffffffffffffffffff161415610642576040517f08c379a000000000000000000000000000000000000000000000000000000000815260040161063990613526565b60405180910390fd5b8073ffffffffffffffffffffffffffffffffffffffff1661066161149d565b73ffffffffffffffffffffffffffffffffffffffff161480610690575061068f8161068a61149d565b61117c565b5b6106cf576040517f08c379a00000000000000000000000000000000000000000000000000000000081526004016106c690613406565b60405180910390fd5b6106d983836114a5565b505050565b6106ef6106e961149d565b8261155e565b61072e576040517f08c379a000000000000000000000000000000000000000000000000000000000815260040161072590613546565b60405180910390fd5b61073983838361163c565b505050565b6060600061077261074e84611898565b60405160200161075e91906131c4565b604051602081830303815290604052611a45565b9050600b80549050816107859190613880565b9050600b81815481106107c1577f4e487b7100000000000000000000000000000000000000000000000000000000600052603260045260246000fd5b9060005260206000200180546107d690613805565b80601f016020809104026020016040519081016040528092919081815260200182805461080290613805565b801561084f5780601f106108245761010080835404028352916020019161084f565b820191906000526020600020905b81548152906001019060200180831161083257829003601f168201915b5050505050915050919050565b61087783838360405180602001604052806000815250610eaa565b505050565b6000806002600084815260200190815260200160002060009054906101000a900473ffffffffffffffffffffffffffffffffffffffff169050600073ffffffffffffffffffffffffffffffffffffffff168173ffffffffffffffffffffffffffffffffffffffff161415610925576040517f08c379a000000000000000000000000000000000000000000000000000000000815260040161091c90613446565b60405180910390fd5b80915050919050565b60008073ffffffffffffffffffffffffffffffffffffffff168273ffffffffffffffffffffffffffffffffffffffff16141561099f576040517f08c379a000000000000000000000000000000000000000000000000000000000815260040161099690613426565b60405180910390fd5b600360008373ffffffffffffffffffffffffffffffffffffffff1673ffffffffffffffffffffffffffffffffffffffff168152602001908152602001600020549050919050565b6060600180546109f590613805565b80601f0160208091040260200160405190810160405280929190818152602001828054610a2190613805565b8015610a6e5780601f10610a4357610100808354040283529160200191610a6e565b820191906000526020600020905b815481529060010190602001808311610a5157829003601f168201915b5050505050905090565b610a8061149d565b73ffffffffffffffffffffffffffffffffffffffff168273ffffffffffffffffffffffffffffffffffffffff161415610aee576040517f08c379a0000000000000000000000000000000000000000000000000000000008152600401610ae5906133c6565b60405180910390fd5b8060056000610afb61149d565b73ffffffffffffffffffffffffffffffffffffffff1673ffffffffffffffffffffffffffffffffffffffff16815260200190815260200160002060008473ffffffffffffffffffffffffffffffffffffffff1673ffffffffffffffffffffffffffffffffffffffff16815260200190815260200160002060006101000a81548160ff0219169083151502179055508173ffffffffffffffffffffffffffffffffffffffff16610ba861149d565b73ffffffffffffffffffffffffffffffffffffffff167f17307eab39ab6107e8899845ad3d59bd9653f200f220920489ca2b5937696c3183604051610bed91906132b4565b60405180910390a35050565b6000610c056007611a78565b90506000610c1282611210565b90506000610c1f8361073e565b90506000610c2c84610d8c565b90506000610c3985610f0c565b90506000838383604051602001610c52939291906130fe565b60405160208183030381529060405290506000600882604051602001610c7992919061312f565b60405160208183030381529060405290506000610cbe83610c9984611a86565b604051602001610caa929190613208565b604051602081830303815290604052611a86565b9050600081604051602001610cd391906131e6565b6040516020818303038152906040529050610cee8189611c66565b610cf8338a611d02565b610d37896040518060400160405280600481526020017f6e6f706500000000000000000000000000000000000000000000000000000000815250611d20565b610d776040518060400160405280601681526020017f4e4654204944202573206d696e74656420746f202573000000000000000000008152508a33611d94565b610d816007611e33565b505050505050505050565b60606000610dc0610d9c84611898565b604051602001610dac9190613180565b604051602081830303815290604052611a45565b9050600c8054905081610dd39190613880565b9050600c8181548110610e0f577f4e487b7100000000000000000000000000000000000000000000000000000000600052603260045260246000fd5b906000526020600020018054610e2490613805565b80601f0160208091040260200160405190810160405280929190818152602001828054610e5090613805565b8015610e9d5780601f10610e7257610100808354040283529160200191610e9d565b820191906000526020600020905b815481529060010190602001808311610e8057829003601f168201915b5050505050915050919050565b610ebb610eb561149d565b8361155e565b610efa576040517f08c379a0000000000000000000000000000000000000000000000000000000008152600401610ef190613546565b60405180910390fd5b610f0684848484611e49565b50505050565b60606000610f40610f1c84611898565b604051602001610f2c919061315e565b604051602081830303815290604052611a45565b9050600d8054905081610f539190613880565b9050600d8181548110610f8f577f4e487b7100000000000000000000000000000000000000000000000000000000600052603260045260246000fd5b906000526020600020018054610fa490613805565b80601f0160208091040260200160405190810160405280929190818152602001828054610fd090613805565b801561101d5780601f10610ff25761010080835404028352916020019161101d565b820191906000526020600020905b81548152906001019060200180831161100057829003601f168201915b5050505050915050919050565b606061103582611431565b611074576040517f08c379a000000000000000000000000000000000000000000000000000000000815260040161106b906134a6565b60405180910390fd5b600060066000848152602001908152602001600020805461109490613805565b80601f01602080910402602001604051908101604052809291908181526020018280546110c090613805565b801561110d5780601f106110e25761010080835404028352916020019161110d565b820191906000526020600020905b8154815290600101906020018083116110f057829003601f168201915b50505050509050600061111e611ea5565b9050600081511415611134578192505050611177565b6000825111156111695780826040516020016111519291906130da565b60405160208183030381529060405292505050611177565b61117284611ebc565b925050505b919050565b6000600560008473ffffffffffffffffffffffffffffffffffffffff1673ffffffffffffffffffffffffffffffffffffffff16815260200190815260200160002060008373ffffffffffffffffffffffffffffffffffffffff1673ffffffffffffffffffffffffffffffffffffffff16815260200190815260200160002060009054906101000a900460ff16905092915050565b6060600061124461122084611898565b60405160200161123091906131a2565b604051602081830303815290604052611a45565b9050600980549050816112579190613880565b905060098181548110611293577f4e487b7100000000000000000000000000000000000000000000000000000000600052603260045260246000fd5b9060005260206000200180546112a890613805565b80601f01602080910402602001604051908101604052809291908181526020018280546112d490613805565b80156113215780601f106112f657610100808354040283529160200191611321565b820191906000526020600020905b81548152906001019060200180831161130457829003601f168201915b5050505050915050919050565b6113c48160405160240161134291906132cf565b6040516020818303038152906040527f41304fac000000000000000000000000000000000000000000000000000000007bffffffffffffffffffffffffffffffffffffffffffffffffffffffff19166020820180517bffffffffffffffffffffffffffffffffffffffffffffffffffffffff8381831617835250505050611f63565b50565b60007f01ffc9a7000000000000000000000000000000000000000000000000000000007bffffffffffffffffffffffffffffffffffffffffffffffffffffffff1916827bffffffffffffffffffffffffffffffffffffffffffffffffffffffff1916149050919050565b60008073ffffffffffffffffffffffffffffffffffffffff166002600084815260200190815260200160002060009054906101000a900473ffffffffffffffffffffffffffffffffffffffff1673ffffffffffffffffffffffffffffffffffffffff1614159050919050565b600033905090565b816004600083815260200190815260200160002060006101000a81548173ffffffffffffffffffffffffffffffffffffffff021916908373ffffffffffffffffffffffffffffffffffffffff160217905550808273ffffffffffffffffffffffffffffffffffffffff166115188361087c565b73ffffffffffffffffffffffffffffffffffffffff167f8c5be1e5ebec7d5bd14f71427d1e84f3dd0314c0f7b2291e5b200ac8c7c3b92560405160405180910390a45050565b600061156982611431565b6115a8576040517f08c379a000000000000000000000000000000000000000000000000000000000815260040161159f906133e6565b60405180910390fd5b60006115b38361087c565b90508073ffffffffffffffffffffffffffffffffffffffff168473ffffffffffffffffffffffffffffffffffffffff16148061162257508373ffffffffffffffffffffffffffffffffffffffff1661160a84610541565b73ffffffffffffffffffffffffffffffffffffffff16145b806116335750611632818561117c565b5b91505092915050565b8273ffffffffffffffffffffffffffffffffffffffff1661165c8261087c565b73ffffffffffffffffffffffffffffffffffffffff16146116b2576040517f08c379a00000000000000000000000000000000000000000000000000000000081526004016116a9906134e6565b60405180910390fd5b600073ffffffffffffffffffffffffffffffffffffffff168273ffffffffffffffffffffffffffffffffffffffff161415611722576040517f08c379a0000000000000000000000000000000000000000000000000000000008152600401611719906133a6565b60405180910390fd5b61172d838383611f8c565b6117386000826114a5565b6001600360008573ffffffffffffffffffffffffffffffffffffffff1673ffffffffffffffffffffffffffffffffffffffff1681526020019081526020016000206000828254611788919061371b565b925050819055506001600360008473ffffffffffffffffffffffffffffffffffffffff1673ffffffffffffffffffffffffffffffffffffffff16815260200190815260200160002060008282546117df919061363a565b92505081905550816002600083815260200190815260200160002060006101000a81548173ffffffffffffffffffffffffffffffffffffffff021916908373ffffffffffffffffffffffffffffffffffffffff160217905550808273ffffffffffffffffffffffffffffffffffffffff168473ffffffffffffffffffffffffffffffffffffffff167fddf252ad1be2c89b69c2b068fc378daa952ba7f163c4a11628f55a4df523b3ef60405160405180910390a4505050565b606060008214156118e0576040518060400160405280600181526020017f30000000000000000000000000000000000000000000000000000000000000008152509050611a40565b600082905060005b600082146119125780806118fb90613837565b915050600a8261190b9190613690565b91506118e8565b60008167ffffffffffffffff811115611954577f4e487b7100000000000000000000000000000000000000000000000000000000600052604160045260246000fd5b6040519080825280601f01601f1916602001820160405280156119865781602001600182028036833780820191505090505b5090505b60008514611a395760018261199f919061371b565b9150600a856119ae9190613880565b60306119ba919061363a565b60f81b8183815181106119f6577f4e487b7100000000000000000000000000000000000000000000000000000000600052603260045260246000fd5b60200101907effffffffffffffffffffffffffffffffffffffffffffffffffffffffffffff1916908160001a905350600a85611a329190613690565b945061198a565b8093505050505b919050565b600081604051602001611a5891906130c3565b6040516020818303038152906040528051906020012060001c9050919050565b600081600001549050919050565b60606000825190506000811415611aaf5760405180602001604052806000815250915050611c61565b60006003600283611ac0919061363a565b611aca9190613690565b6004611ad691906136c1565b90506000602082611ae7919061363a565b67ffffffffffffffff811115611b26577f4e487b7100000000000000000000000000000000000000000000000000000000600052604160045260246000fd5b6040519080825280601f01601f191660200182016040528015611b585781602001600182028036833780820191505090505b50905060006040518060600160405280604081526020016139db60409139905060018101602083017f300000000000000000000000000000000000000000000000000000000000000060005b87811015611c1d5760038101905062ffffff818b015116603f8160121c168501518060081b905060ff603f83600c1c1687015116810190508060081b905060ff603f8360061c1687015116810190508060081b905060ff603f831687015116810190508060e01b90508085526004850194505050611ba4565b50506003860660018114611c385760028114611c4857611c53565b613d3d60f01b6002830352611c53565b603d60f81b60018303525b508484525050819450505050505b919050565b611cfe8282604051602401611c7c9291906132f1565b6040516020818303038152906040527f4b5c4277000000000000000000000000000000000000000000000000000000007bffffffffffffffffffffffffffffffffffffffffffffffffffffffff19166020820180517bffffffffffffffffffffffffffffffffffffffffffffffffffffffff8381831617835250505050611f63565b5050565b611d1c828260405180602001604052806000815250611f91565b5050565b611d2982611431565b611d68576040517f08c379a0000000000000000000000000000000000000000000000000000000008152600401611d5f90613466565b60405180910390fd5b80600660008481526020019081526020016000209080519060200190611d8f929190612364565b505050565b611e2e838383604051602401611dac93929190613328565b6040516020818303038152906040527fe3849f79000000000000000000000000000000000000000000000000000000007bffffffffffffffffffffffffffffffffffffffffffffffffffffffff19166020820180517bffffffffffffffffffffffffffffffffffffffffffffffffffffffff8381831617835250505050611f63565b505050565b6001816000016000828254019250508190555050565b611e5484848461163c565b611e6084848484611fec565b611e9f576040517f08c379a0000000000000000000000000000000000000000000000000000000008152600401611e9690613366565b60405180910390fd5b50505050565b606060405180602001604052806000815250905090565b6060611ec782611431565b611f06576040517f08c379a0000000000000000000000000000000000000000000000000000000008152600401611efd90613506565b60405180910390fd5b6000611f10611ea5565b90506000815111611f305760405180602001604052806000815250611f5b565b80611f3a84611898565b604051602001611f4b9291906130da565b6040516020818303038152906040525b915050919050565b60008151905060006a636f6e736f6c652e6c6f679050602083016000808483855afa5050505050565b505050565b611f9b8383612183565b611fa86000848484611fec565b611fe7576040517f08c379a0000000000000000000000000000000000000000000000000000000008152600401611fde90613366565b60405180910390fd5b505050565b600061200d8473ffffffffffffffffffffffffffffffffffffffff16612351565b15612176578373ffffffffffffffffffffffffffffffffffffffff1663150b7a0261203661149d565b8786866040518563ffffffff1660e01b81526004016120589493929190613268565b602060405180830381600087803b15801561207257600080fd5b505af19250505080156120a357506040513d601f19601f820116820180604052508101906120a091906126a8565b60015b612126573d80600081146120d3576040519150601f19603f3d011682016040523d82523d6000602084013e6120d8565b606091505b5060008151141561211e576040517f08c379a000000000000000000000000000000000000000000000000000000000815260040161211590613366565b60405180910390fd5b805181602001fd5b63150b7a0260e01b7bffffffffffffffffffffffffffffffffffffffffffffffffffffffff1916817bffffffffffffffffffffffffffffffffffffffffffffffffffffffff19161491505061217b565b600190505b949350505050565b600073ffffffffffffffffffffffffffffffffffffffff168273ffffffffffffffffffffffffffffffffffffffff1614156121f3576040517f08c379a00000000000000000000000000000000000000000000000000000000081526004016121ea90613486565b60405180910390fd5b6121fc81611431565b1561223c576040517f08c379a000000000000000000000000000000000000000000000000000000000815260040161223390613386565b60405180910390fd5b61224860008383611f8c565b6001600360008473ffffffffffffffffffffffffffffffffffffffff1673ffffffffffffffffffffffffffffffffffffffff1681526020019081526020016000206000828254612298919061363a565b92505081905550816002600083815260200190815260200160002060006101000a81548173ffffffffffffffffffffffffffffffffffffffff021916908373ffffffffffffffffffffffffffffffffffffffff160217905550808273ffffffffffffffffffffffffffffffffffffffff16600073ffffffffffffffffffffffffffffffffffffffff167fddf252ad1be2c89b69c2b068fc378daa952ba7f163c4a11628f55a4df523b3ef60405160405180910390a45050565b600080823b905060008111915050919050565b82805461237090613805565b90600052602060002090601f01602090048101928261239257600085556123d9565b82601f106123ab57805160ff19168380011785556123d9565b828001600101855582156123d9579182015b828111156123d85782518255916020019190600101906123bd565b5b5090506123e691906123ea565b5090565b5b808211156124035760008160009055506001016123eb565b5090565b600061241a612415846135b2565b613581565b90508281526020810184848401111561243257600080fd5b61243d8482856137c3565b509392505050565b6000813590506124548161397e565b92915050565b60008135905061246981613995565b92915050565b60008135905061247e816139ac565b92915050565b600081519050612493816139ac565b92915050565b600082601f8301126124aa57600080fd5b81356124ba848260208601612407565b91505092915050565b6000813590506124d2816139c3565b92915050565b6000602082840312156124ea57600080fd5b60006124f884828501612445565b91505092915050565b6000806040838503121561251457600080fd5b600061252285828601612445565b925050602061253385828601612445565b9150509250929050565b60008060006060848603121561255257600080fd5b600061256086828701612445565b935050602061257186828701612445565b9250506040612582868287016124c3565b9150509250925092565b600080600080608085870312156125a257600080fd5b60006125b087828801612445565b94505060206125c187828801612445565b93505060406125d2878288016124c3565b925050606085013567ffffffffffffffff8111156125ef57600080fd5b6125fb87828801612499565b91505092959194509250565b6000806040838503121561261a57600080fd5b600061262885828601612445565b92505060206126398582860161245a565b9150509250929050565b6000806040838503121561265657600080fd5b600061266485828601612445565b9250506020612675858286016124c3565b9150509250929050565b60006020828403121561269157600080fd5b600061269f8482850161246f565b91505092915050565b6000602082840312156126ba57600080fd5b60006126c884828501612484565b91505092915050565b6000602082840312156126e357600080fd5b60006126f1848285016124c3565b91505092915050565b6127038161374f565b82525050565b61271281613761565b82525050565b6000612723826135f7565b61272d818561360d565b935061273d8185602086016137d2565b6127468161396d565b840191505092915050565b600061275c82613602565b612766818561361e565b93506127768185602086016137d2565b61277f8161396d565b840191505092915050565b600061279582613602565b61279f818561362f565b93506127af8185602086016137d2565b80840191505092915050565b600081546127c881613805565b6127d2818661362f565b945060018216600081146127ed57600181146127fe57612831565b60ff19831686528186019350612831565b612807856135e2565b60005b838110156128295781548189015260018201915060208101905061280a565b838801955050505b50505092915050565b600061284760328361361e565b91507f4552433732313a207472616e7366657220746f206e6f6e20455243373231526560008301527f63656976657220696d706c656d656e74657200000000000000000000000000006020830152604082019050919050565b60006128ad601c8361361e565b91507f4552433732313a20746f6b656e20616c7265616479206d696e746564000000006000830152602082019050919050565b60006128ed600a8361362f565b91507f54484952445f574f5244000000000000000000000000000000000000000000006000830152600a82019050919050565b600061292d60248361361e565b91507f4552433732313a207472616e7366657220746f20746865207a65726f2061646460008301527f72657373000000000000000000000000000000000000000000000000000000006020830152604082019050919050565b600061299360198361361e565b91507f4552433732313a20617070726f766520746f2063616c6c6572000000000000006000830152602082019050919050565b60006129d3600b8361362f565b91507f5345434f4e445f574f52440000000000000000000000000000000000000000006000830152600b82019050919050565b6000612a13602c8361361e565b91507f4552433732313a206f70657261746f7220717565727920666f72206e6f6e657860008301527f697374656e7420746f6b656e00000000000000000000000000000000000000006020830152604082019050919050565b6000612a79600d8361362f565b91507f3c2f746578743e3c2f7376673e000000000000000000000000000000000000006000830152600d82019050919050565b6000612ab960388361361e565b91507f4552433732313a20617070726f76652063616c6c6572206973206e6f74206f7760008301527f6e6572206e6f7220617070726f76656420666f7220616c6c00000000000000006020830152604082019050919050565b6000612b1f602a8361361e565b91507f4552433732313a2062616c616e636520717565727920666f7220746865207a6560008301527f726f2061646472657373000000000000000000000000000000000000000000006020830152604082019050919050565b6000612b8560298361361e565b91507f4552433732313a206f776e657220717565727920666f72206e6f6e657869737460008301527f656e7420746f6b656e00000000000000000000000000000000000000000000006020830152604082019050919050565b6000612beb602e8361361e565b91507f45524337323155524953746f726167653a2055524920736574206f66206e6f6e60008301527f6578697374656e7420746f6b656e0000000000000000000000000000000000006020830152604082019050919050565b6000612c51600b8361362f565b91507f53544152545f434f4c4f520000000000000000000000000000000000000000006000830152600b82019050919050565b6000612c9160028361362f565b91507f227d0000000000000000000000000000000000000000000000000000000000006000830152600282019050919050565b6000612cd160208361361e565b91507f4552433732313a206d696e7420746f20746865207a65726f20616464726573736000830152602082019050919050565b6000612d1160318361361e565b91507f45524337323155524953746f726167653a2055524920717565727920666f722060008301527f6e6f6e6578697374656e7420746f6b656e0000000000000000000000000000006020830152604082019050919050565b6000612d77604b8361362f565b91507f222c20226465736372697074696f6e223a202253717561726573206f6e20666c60008301527f65656b2e222c2022696d616765223a2022646174613a696d6167652f7376672b60208301527f786d6c3b6261736536342c0000000000000000000000000000000000000000006040830152604b82019050919050565b6000612e03602c8361361e565b91507f4552433732313a20617070726f76656420717565727920666f72206e6f6e657860008301527f697374656e7420746f6b656e00000000000000000000000000000000000000006020830152604082019050919050565b6000612e6960298361361e565b91507f4552433732313a207472616e73666572206f6620746f6b656e2074686174206960008301527f73206e6f74206f776e00000000000000000000000000000000000000000000006020830152604082019050919050565b6000612ecf602f8361361e565b91507f4552433732314d657461646174613a2055524920717565727920666f72206e6f60008301527f6e6578697374656e7420746f6b656e00000000000000000000000000000000006020830152604082019050919050565b6000612f3560218361361e565b91507f4552433732313a20617070726f76616c20746f2063757272656e74206f776e6560008301527f72000000000000000000000000000000000000000000000000000000000000006020830152604082019050919050565b6000612f9b600a8361362f565b91507f46495253545f574f5244000000000000000000000000000000000000000000006000830152600a82019050919050565b6000612fdb601d8361362f565b91507f646174613a6170706c69636174696f6e2f6a736f6e3b6261736536342c0000006000830152601d82019050919050565b600061301b60318361361e565b91507f4552433732313a207472616e736665722063616c6c6572206973206e6f74206f60008301527f776e6572206e6f7220617070726f7665640000000000000000000000000000006020830152604082019050919050565b600061308160098361362f565b91507f7b226e616d653a202200000000000000000000000000000000000000000000006000830152600982019050919050565b6130bd816137b9565b82525050565b60006130cf828461278a565b915081905092915050565b60006130e6828561278a565b91506130f2828461278a565b91508190509392505050565b600061310a828661278a565b9150613116828561278a565b9150613122828461278a565b9150819050949350505050565b600061313b82856127bb565b9150613147828461278a565b915061315282612a6c565b91508190509392505050565b6000613169826128e0565b9150613175828461278a565b915081905092915050565b600061318b826129c6565b9150613197828461278a565b915081905092915050565b60006131ad82612c44565b91506131b9828461278a565b915081905092915050565b60006131cf82612f8e565b91506131db828461278a565b915081905092915050565b60006131f182612fce565b91506131fd828461278a565b915081905092915050565b600061321382613074565b915061321f828561278a565b915061322a82612d6a565b9150613236828461278a565b915061324182612c84565b91508190509392505050565b600060208201905061326260008301846126fa565b92915050565b600060808201905061327d60008301876126fa565b61328a60208301866126fa565b61329760408301856130b4565b81810360608301526132a98184612718565b905095945050505050565b60006020820190506132c96000830184612709565b92915050565b600060208201905081810360008301526132e98184612751565b905092915050565b6000604082019050818103600083015261330b8185612751565b9050818103602083015261331f8184612751565b90509392505050565b600060608201905081810360008301526133428186612751565b905061335160208301856130b4565b61335e60408301846126fa565b949350505050565b6000602082019050818103600083015261337f8161283a565b9050919050565b6000602082019050818103600083015261339f816128a0565b9050919050565b600060208201905081810360008301526133bf81612920565b9050919050565b600060208201905081810360008301526133df81612986565b9050919050565b600060208201905081810360008301526133ff81612a06565b9050919050565b6000602082019050818103600083015261341f81612aac565b9050919050565b6000602082019050818103600083015261343f81612b12565b9050919050565b6000602082019050818103600083015261345f81612b78565b9050919050565b6000602082019050818103600083015261347f81612bde565b9050919050565b6000602082019050818103600083015261349f81612cc4565b9050919050565b600060208201905081810360008301526134bf81612d04565b9050919050565b600060208201905081810360008301526134df81612df6565b9050919050565b600060208201905081810360008301526134ff81612e5c565b9050919050565b6000602082019050818103600083015261351f81612ec2565b9050919050565b6000602082019050818103600083015261353f81612f28565b9050919050565b6000602082019050818103600083015261355f8161300e565b9050919050565b600060208201905061357b60008301846130b4565b92915050565b6000604051905081810181811067ffffffffffffffff821117156135a8576135a761393e565b5b8060405250919050565b600067ffffffffffffffff8211156135cd576135cc61393e565b5b601f19601f8301169050602081019050919050565b60008190508160005260206000209050919050565b600081519050919050565b600081519050919050565b600082825260208201905092915050565b600082825260208201905092915050565b600081905092915050565b6000613645826137b9565b9150613650836137b9565b9250827fffffffffffffffffffffffffffffffffffffffffffffffffffffffffffffffff03821115613685576136846138b1565b5b828201905092915050565b600061369b826137b9565b91506136a6836137b9565b9250826136b6576136b56138e0565b5b828204905092915050565b60006136cc826137b9565b91506136d7836137b9565b9250817fffffffffffffffffffffffffffffffffffffffffffffffffffffffffffffffff04831182151516156137105761370f6138b1565b5b828202905092915050565b6000613726826137b9565b9150613731836137b9565b925082821015613744576137436138b1565b5b828203905092915050565b600061375a82613799565b9050919050565b60008115159050919050565b60007fffffffff0000000000000000000000000000000000000000000000000000000082169050919050565b600073ffffffffffffffffffffffffffffffffffffffff82169050919050565b6000819050919050565b82818337600083830152505050565b60005b838110156137f05780820151818401526020810190506137d5565b838111156137ff576000848401525b50505050565b6000600282049050600182168061381d57607f821691505b602082108114156138315761383061390f565b5b50919050565b6000613842826137b9565b91507fffffffffffffffffffffffffffffffffffffffffffffffffffffffffffffffff821415613875576138746138b1565b5b600182019050919050565b600061388b826137b9565b9150613896836137b9565b9250826138a6576138a56138e0565b5b828206905092915050565b7f4e487b7100000000000000000000000000000000000000000000000000000000600052601160045260246000fd5b7f4e487b7100000000000000000000000000000000000000000000000000000000600052601260045260246000fd5b7f4e487b7100000000000000000000000000000000000000000000000000000000600052602260045260246000fd5b7f4e487b7100000000000000000000000000000000000000000000000000000000600052604160045260246000fd5b6000601f19601f8301169050919050565b6139878161374f565b811461399257600080fd5b50565b61399e81613761565b81146139a957600080fd5b50565b6139b58161376d565b81146139c057600080fd5b50565b6139cc816137b9565b81146139d757600080fd5b5056fe4142434445464748494a4b4c4d4e4f505152535455565758595a6162636465666768696a6b6c6d6e6f707172737475767778797a303132333435363738392b2fa26469706673582212209c83e03ae1522ad45e6abdd48c09a701040e5f1edafc828d10ec3c2dc536f02a64736f6c634300080000333c73766720786d6c6e733d27687474703a2f2f7777772e77332e6f72672f323030302f73766727207072657365727665417370656374526174696f3d27784d696e594d696e206d656574272076696577426f783d273020302033353020333530273e3c646566733e3c6c696e6561724772616469656e742069643d276772616469656e74273e3c73746f7020636c6173733d2773746f703127206f66667365743d27302527202f3e3c73746f7020636c6173733d2773746f703227206f66667365743d273130302527202f3e3c2f6c696e6561724772616469656e743e3c7374796c653e2e62617365207b2066696c6c3a2077686974653b20666f6e742d66616d696c793a2073616e732d73657269663b20666f6e742d7374796c653a206974616c69633b20666f6e742d7765696768743a20626f6c643b20666f6e742d73697a653a20323470783b207d2023737175617265207b2066696c6c3a2075726c28236772616469656e74293b207d202e73746f7031207b2073746f702d636f6c6f723a20247b7374617274436f6c6f727d3b207d202e73746f7032207b2073746f702d636f6c6f723a20247b656e64436f6c6f727d3b207d3c2f7374796c653e3c726563742069643d27737175617265272077696474683d273130302527206865696768743d2731303025272066696c6c3d27626c61636b272f3e3c7465787420783d273530252720793d273530252720636c6173733d27626173652720646f6d696e616e742d626173656c696e653d276d6964646c652720746578742d616e63686f723d276d6964646c65273e436f6e74726163747572616c206f626c69676174696f6e732077617272616e74207468697320636f6e74726163742e204149204e46542e",
    "linkReferences": {},
    "deployedLinkReferences": {}
}